:100D4E00737461727465640072652D7061696E747E
:010D5E000094
:100D0D00410000004100220141000100420023008A
:060D1D0000420025000069
:100D2400759850758920758E40758BD9758DD9D27B
:060D34008ED2ACD2AF220A
:03002300020B705D
:100B7000C0E0C0F0C083C082C0D075D008309856A5
:100B8000C298900026E02401FF900025E03400FE8A
:100B90007C007D201209B3900023E0B50C08A3E08F
:100BA000B50D03D38001C3402D900025E0FEA3E0E6
:100BB0002402F58274003EF583E599F0900026E06A
:100BC0002401FF900025E03400FE7C007D20120906
:100BD000B3ECF0A3EDF0309904C299C200D0D0D0AC
:080BE00082D083D0F0D0E03296
:080D68002000FDD2008F99224A
:100C91009000ADEBF0A3EAF0A3E9F09000ADE0FB2A
:100CA100A3E0FAA3E0F912099A60179000ADA3E45A
:100CB10075F0011209E9A9F0FA12099AFF120D68FB
:030CC10080D922B5
:100C4400900023E0FEA3E0FFC3900026E09FFF9006
:100C54000025E09E4F70057EFF7FFF22900023E079
:100C6400FEA3E02402F58274003EF583E0FB9000CD
:100C740024E02401FF900023E03400FE7C007D206A
:0D0C84001209B3ECF0A3EDF07E00AF0322E7
:090D5F007F077E02DEFEDFFA22AE
:100D3A00AD07AC06ED1DAE0470011C4E6005120D28
:040D4A005F80F122B3
:100BE8009000ADEFF0A3EDF0E4A3F0E4FD9000AECB
:100BF800E0FC9000ADE0FF3395E0FEEF7806C333EC
:100C0800CE33CED8F92427F58274003EF583C0830D
:100C1800C0829000AFE0D082D08375F0081209FF3F
:100C2800E5822DF582E43583F583ECF00DEDB4080B
:0C0C3800BC9000AFE004F0E0B408B02273
:100AEC007401A807088002C333D8FCFF9000B3E060
:100AFC009000006023E075F040A42427F582E434D4
:100B0C0000F58375F008EB1209FFE5822DF582E400
:100B1C003583F583E04FF022E075F040A42427F5EF
:100B2C0082E43400F58375F008EB1209FFE5822DA1
:100B3C00F582E43583F583E0FEEFF4FFEE5FFF9082
:100B4C000000E075F040A42427F582E43400F5831E
:100B5C0075F008EB1209FFE5822DF582E43583F57B
:040B6C0083EFF02201
:100CC400900000E075F040A42427F582E43400F598
:100CD4008375F008ED1209FFE5822FF582E4358370
:050CE400F583EBF02296
:100CE900900000E06009E4F090002204F0800B908D
:100CF90000007401F0E4900022F0900022E0FFE48B
:040D0900FD020BE8F4
:10080000E49000ABF0A3F075A882758801758CC0E8
:10081000F58AD28C900000E0FFE4FD120BE8900016
:1008200022E0FFE4FD120BE8120D24120C449000AC
:10083000A8EEF0A3EFF0F47002EEF460EE9000ABDF
:10084000E0701C9000A8E07004A3E064F270DC90FB
:1008500000AB04F07BFF7A0D794E120C9180CC90A6
:1008600000ACE0FEC3944050489000A8A3E0FFEE27
:100870005407FE900022E075F040A42427F582E49E
:100880003400F583C083C0829000ACE0FD131313E5
:10089000541FD082D08375F0081209FFE5822EF52F
:1008A00082E43583F583EFF09000ACE004F0120DA4
:1008B000689000ACE0C39440500302082B7BFF7AA1
:1008C0000D7956120C91120CE9E49000ABF0A3F0F4
:0308D00002082BF0
:03000B000208D315
:1008D300C0E0C0F0C083C082C0D075D000C000C0EB
:1008E30004C005C006C0077590009000A7E4F0900F
:1008F30000A7E0FFC39408505E7401A807088002B4
:10090300C333D8FCF5A07F037E00120D3A9000009C
:10091300E075F040A42427F582E43400F583C08316
:10092300C082900001E0D082D08375F0081209FFE5
:10093300C083C0829000A7E0D082D0832582F58255
:10094300E43583F583E0F5807F037E00120D3A9052
:1009530000A7E004F08098900001E0FF7401A8076D
:10096300088002C333D8FCF590900001E0C39407DC
:100973005005E004F08005900001E4F0758CC0752B
:100983008A00D007D006D005D004D000D0D0D082C2
:07099300D083D0F0D0E03268
:03000000020A6091
:0C0A6000787FE4F6D8FD758120020AA71B
:10099A00BB010689828A83E0225002E722BBFE025B
:0909AA00E32289828A83E493228E
:1009B300C2D5EC30E709B2D5E4C39DFDE49CFCEE5F
:1009C30030E715B2D5E4C39FFFE49EFE120A0BC3C2
:1009D300E49DFDE49CFC8003120A0B30D507C3E4BD
:0609E3009FFFE49EFE22CE
:1009E900A3F8E0C5F025F0F0E582158270021583C1
:0609F900E0C838F0E8221E
:0C09FF00A42582F582E5F03583F5832203
:100A6C00020800E493A3F8E493A34003F68001F298
:100A7C0008DFF48029E493A3F85407240CC8C3338B
:100A8C00C4540F4420C8834004F456800146F6DF5A
:100A9C00E4800B0102040810204080900D0DE47ED0
:100AAC00019360BCA3FF543F30E509541FFEE4934F
:100ABC00A360010ECF54C025E060A840B8E493A316
:100ACC00FAE493A3F8E493A3C8C582C8CAC583CA41
:100ADC00F0A3C8C582C8CAC583CADFE9DEE780BEF9
:010D230000CF
:100A0B00BC000BBE0029EF8DF084FFADF022E4CCCF
:100A1B00F875F008EF2FFFEE33FEEC33FCEE9DEC98
:100A2B00984005FCEE9DFE0FD5F0E9E4CEFD22EDDE
:100A3B00F8F5F0EE8420D21CFEADF075F008EF2F28
:100A4B00FFED33FD4007985006D5F0F222C398FD19
:050A5B000FD5F0EA22B6
:00000001FF
