:100CA60041000000410004014100010042008500AE
:0B0CB600004200870000420002000026
:03002300020A07C7
:100A0700C0E0C0F0C083C082C0D075D000C000C0B5
:100A170004C005C006C007C2AF309862C2989000F4
:100A270085E0FEA3E0FF900087E0B50616A3E0B5DA
:100A37000711D3900003E09400900002E0648094D3
:100A470080503B900087E0FEA3E02405F582740008
:100A57003EF583E599F0900088E02401FF90008738
:100A6700E03400FE7C007D80120970ECF0A3EDF00D
:100A7700900003E004F07006900002E004F0D2AFAB
:100A8700D007D006D005D004D000D0D0D082D083F4
:050A9700D0F0D0E032B8
:100C0800C2AF900002E07002A3E0700674FFFAFB26
:100C1800803C900085E0FEA3E02405F58274003E48
:100C2800F583E07A00FB900086E02401FF900085C0
:100C3800E03400FE7C007D80120970ECF0A3EDF03A
:100C4800900003E024FFF0900002E034FFF0D2AF00
:050C5800AF03AE022213
:0D0CD600120C08BEFF06BFFF030080F422D1
:090CE3007F077E02DEFEDFFA222B
:100CC200AD07AC06ED1DAE0470011C4E6005120CA2
:040CD200E380F122A8
:100BAC0090010CEFF0A3EDF0E4A3F0E4FD90010D47
:100BBC00E0FC90010CE0FF3395E0FEEF7806C333C8
:100BCC00CE33CED8F92489F58274003EF583C083E8
:100BDC00C08290010EE0D082D08375F0081209A675
:100BEC00E5822DF582E43583F583ECF00DEDB40848
:0C0BFC00BC90010EE004F0E0B408B02250
:100B28007401A807088002C333D8FCFF900112E0C3
:100B38009000006023E075F040A42489F582E43435
:100B480000F58375F008EB1209A6E5822DF582E41D
:100B58003583F583E04FF022E075F040A42489F551
:100B680082E43400F58375F008EB1209A6E5822DBE
:100B7800F582E43583F583E0FEEFF4FFEE5FFF9046
:100B88000000E075F040A42489F582E43400F58380
:100B980075F008EB1209A6E5822DF582E43583F598
:040BA80083EFF022C5
:100C5D00900000E075F040A42489F582E43400F59D
:100C6D008375F008ED1209A6E5822FF582E4358330
:050C7D00F583EBF022FD
:100C8200900000E06009E4F090000404F0800B9012
:100C920000007401F0E4900004F0900004E0FFE42E
:040CA200FD020BAC98
:1008C700E490010AF0A3F053877F759850438E0494
:1008D700759CD9438E01438E10D2AC758CC0F58AB6
:1008E700D28CD2A9D2AF900000E0FFE4FD120BAC8E
:1008F700900004E0FFE4FD120BAC7BFFE4FDFF1268
:100907000C5D120CD67E0090010AE0700CEF64F2C9
:1009170070F004F0E4A3F080E990010BE0C3944089
:100927005034E0FE5407FD900004E075F040A42425
:1009370089F582E43400F583EE131313541F75F021
:10094700081209A6E5822DF582E43583F583EFF0D9
:1009570090010BE004F090010BE0C3944040A31218
:090967000C82E490010AF0809971
:03000B00020800E8
:10080000C0E0C0F0C083C082C0D075D000C000C0BE
:1008100004C005C006C007759000900109E4F0907F
:100820000109E0FFC39408505E7401A80708800224
:10083000C333D8FCF5A07F037E00120CC2900000E9
:10084000E075F040A42489F582E43400F583C08388
:10085000C082900001E0D082D08375F0081209A612
:10086000C083C082900109E0D082D0832582F582C6
:10087000E43583F583E0F5807F037E00120CC2909F
:100880000109E004F08098900001E0FF7401A807DE
:10089000088002C333D8FCF590900001E0C39407B0
:1008A0005005E004F08005900001E4F0758CC075FF
:1008B0008A00D007D006D005D004D000D0D0D08296
:0708C000D083D0F0D0E0323C
:03000000020A9C55
:0C0A9C00787FE4F6D8FD758120020AE3A3
:10097000C2D5EC30E709B2D5E4C39DFDE49CFCEEA2
:1009800030E715B2D5E4C39FFFE49EFE1209B2C35F
:10099000E49DFDE49CFC80031209B230D507C3E45A
:0609A0009FFFE49EFE2211
:0C09A600A42582F582E5F03583F583225C
:100AA8000208C7E493A3F8E493A34003F68001F295
:100AB80008DFF48029E493A3F85407240CC8C3334F
:100AC800C4540F4420C8834004F456800146F6DF1E
:100AD800E4800B0102040810204080900CA6E47EFC
:100AE800019360BCA3FF543F30E509541FFEE49313
:100AF800A360010ECF54C025E060A840B8E493A3DA
:100B0800FAE493A3F8E493A3C8C582C8CAC583CA04
:100B1800F0A3C8C582C8CAC583CADFE9DEE780BEBC
:010CC1000032
:1009B200BC000BBE0029EF8DF084FFADF022E4CC29
:1009C200F875F008EF2FFFEE33FEEC33FCEE9DECF2
:1009D200984005FCEE9DFE0FD5F0E9E4CEFD22ED38
:1009E200F8F5F0EE8420D21CFEADF075F008EF2F82
:1009F200FFED33FD4007985006D5F0F222C398FD73
:050A02000FD5F0EA220F
:00000001FF
