:100D0800410000004100220141000100420023008F
:060D18000042002500006E
:03002300020A4787
:100A4700C0E0C0F0C083C082C0D075D000C000C075
:100A570004C005C006C007309856C298900026E02B
:100A67002401FF900025E03400FE7C007D20120861
:100A7700E0900023E0B50408A3E0B50503D38001A7
:100A8700C3402D900025E0FEA3E02402F582740008
:100A97003EF583E599F0900026E02401FF900025BC
:100AA700E03400FE7C007D201208E0ECF0A3EDF0BE
:100AB700309904C299C200D007D006D005D004D01F
:0C0AC70000D0D0D082D083D0F0D0E0323C
:080D3C002000FDD2008F992276
:100C8C009000B1EBF0A3EAF0A3E9F09000B1E0FB27
:100C9C00A3E0FAA3E0F91208C760179000B1A3E42F
:100CAC0075F001120916A9F0FA1208C7FF120D3CD3
:030CBC0080D922BA
:100C3F00900023E0FEA3E0FFC3900026E09FFF900B
:100C4F000025E09E4F70057EFF7FFF22900023E07E
:100C5F00FEA3E02402F58274003EF583E0FB9000D2
:100C6F0024E02401FF900023E03400FE7C007D206F
:0D0C7F001208E0ECF0A3EDF07E00AF0322C0
:090D33007F077E02DEFEDFFA22DA
:100D1F00AD07AC06ED1DAE0470011C4E6005120D43
:040D2F003380F122FA
:100BE3009000AAEFF0A3EDF0E4A3F0E4FD9000ABD6
:100BF300E0FC9000AAE0FF3395E0FEEF7806C333F4
:100C0300CE33CED8F92427F58274003EF583C08312
:100C1300C0829000ACE0D082D08375F00812092C1A
:100C2300E5822DF582E43583F583ECF00DEDB40810
:0C0C3300BC9000ACE004F0E0B408B0227B
:100B5F007401A807088002C333D8FCFF9000B0E0EF
:100B6F009000006023E075F040A42427F582E43460
:100B7F0000F58375F008EB12092CE5822DF582E460
:100B8F003583F583E04FF022E075F040A42427F57C
:100B9F0082E43400F58375F008EB12092CE5822D01
:100BAF00F582E43583F583E0FEEFF4FFEE5FFF900F
:100BBF000000E075F040A42427F582E43400F583AB
:100BCF0075F008EB12092CE5822DF582E43583F5DB
:040BDF0083EFF0228E
:100CBF00900000E075F040A42427F582E43400F59D
:100CCF008375F008ED12092CE5822FF582E4358348
:050CDF00F583EBF0229B
:100CE400900000E06009E4F090002204F0800B9092
:100CF40000007401F0E4900022F0900022E0FFE490
:040D0400FD020BE3FE
:10098D00E49000A8F0A3F0438780759850438E043F
:10099D00759CF3438E01438E10D2AC758CC0F58AD5
:1009AD00D28CD2A9D2AF900000E0FFE4FD120BE390
:1009BD00900022E0FFE4FD120BE37BFFE4FDFF124C
:1009CD000CBF120C3FAD07AC06EDF47002ECF460F9
:1009DD00F1AF05120D3C9000A8E0700AED64F24CE9
:1009ED0070E004F080DC9000A9E0C394405036AF75
:1009FD0005E0FE5407FD900022E075F040A4242789
:100A0D00F582E43400F583EE131313541F75F008CB
:100A1D0012092CE5822DF582E43583F583EFF090F4
:100A2D0000A9E004F09000A9E0C394404094120C9A
:0A0A3D00E4E49000A8F0A3F0808824
:03000B00020800E8
:10080000C0E0C0F0C083C082C0D075D000C000C0BE
:1008100004C005C006C0077590009000A7E4F090E2
:1008200000A7E0FFC39408505E7401A80708800287
:10083000C333D8FCF5A07F037E00120D1F9000008B
:10084000E075F040A42427F582E43400F583C083EA
:10085000C082900001E0D082D08375F00812092C8C
:10086000C083C0829000A7E0D082D0832582F58229
:10087000E43583F583E0F5807F037E00120D1F9041
:1008800000A7E004F08098900001E0FF7401A80741
:10089000088002C333D8FCF590900001E0C39407B0
:1008A0005005E004F08005900001E4F0758CC075FF
:1008B0008A00D007D006D005D004D000D0D0D08296
:0708C000D083D0F0D0E0323C
:03000000020AD31E
:0C0AD300787FE4F6D8FD758120020B1A34
:1008C700BB010689828A83E0225002E722BBFE022F
:0908D700E32289828A83E4932262
:1008E000C2D5EC30E709B2D5E4C39DFDE49CFCEE33
:1008F00030E715B2D5E4C39FFFE49EFE120938C36A
:10090000E49DFDE49CFC800312093830D507C3E464
:060910009FFFE49EFE22A1
:10091600A3F8E0C5F025F0F0E58215827002158394
:06092600E0C838F0E822F1
:0C092C00A42582F582E5F03583F58322D6
:100ADF0002098DE493A3F8E493A34003F68001F297
:100AEF0008DFF48029E493A3F85407240CC8C33318
:100AFF00C4540F4420C8834004F456800146F6DFE7
:100B0F00E4800B0102040810204080900D08E47E61
:100B1F00019360BCA3FF543F30E509541FFEE493DB
:100B2F00A360010ECF54C025E060A840B8E493A3A2
:100B3F00FAE493A3F8E493A3C8C582C8CAC583CACD
:100B4F00F0A3C8C582C8CAC583CADFE9DEE780BE85
:010D1E0000D4
:10093800BC000BBE0029EF8DF084FFADF022E4CCA3
:10094800F875F008EF2FFFEE33FEEC33FCEE9DEC6C
:10095800984005FCEE9DFE0FD5F0E9E4CEFD22EDB2
:10096800F8F5F0EE8420D21CFEADF075F008EF2FFC
:10097800FFED33FD4007985006D5F0F222C398FDED
:050988000FD5F0EA228A
:00000001FF
