:100CAC000020406080A0C0E0E4E8ECF0F4F8FCDC4C
:100CBC00BC9C7C5C3C1C1814100C080425456585F8
:100CCC00A5C5C9CDD1D5D9B99979593935312D2980
:100CDC004A6A8AAAAEB2B6967656524E6F8F937304
:100CEC006F8F93734A6A8AAAAEB2B6967656524EF4
:100CFC0025456585A5C5C9CDD1D5D9B999795939B8
:100D0C0035312D290020406080A0C0E0E4E8ECF0F3
:100D1C00F4F8FCDCBC9C7C5C3C1C1814100C080427
:100E940041000000410004014100010042008500BE
:0B0EA400004200870000420002000036
:03002300020B07C6
:100B0700C0E0C0F0C083C082C0D075D000C000C0B4
:100B170004C005C006C007C2AF309862C2989000F3
:100B270085E0FEA3E0FF900087E0B50616A3E0B5D9
:100B37000711D3900003E09400900002E0648094D2
:100B470080503B900087E0FEA3E02405F582740007
:100B57003EF583E599F0900088E02401FF90008737
:100B6700E03400FE7C007D80120A70ECF0A3EDF00B
:100B7700900003E004F07006900002E004F0D2AFAA
:100B8700D007D006D005D004D000D0D0D082D083F3
:050B9700D0F0D0E032B7
:100DF600C2AF900002E07002A3E0700674FFFAFB37
:100E0600803C900085E0FEA3E02405F58274003E58
:100E1600F583E07A00FB900086E02401FF900085D0
:100E2600E03400FE7C007D80120A70ECF0A3EDF049
:100E3600900003E024FFF0900002E034FFF0D2AF10
:050E4600AF03AE022223
:0D0EC800120DF6BEFF06BFFF030080F422EE
:090ED5007F077E02DEFEDFFA2237
:040EB0007F407E1FE2
:100EB400AD07AC06ED1DAE0470011C4E6005120EAC
:040EC400D580F122C2
:100D9A0090010DEFF0A3EDF0E4A3F0E4FD90010E55
:100DAA00E0FC90010DE0FF3395E0FEEF7806C333D7
:100DBA00CE33CED8F92489F58274003EF583C083F8
:100DCA00C08290010FE0D082D08375F008120AA683
:100DDA00E5822DF582E43583F583ECF00DEDB40858
:0C0DEA00BC90010FE004F0E0B408B0225F
:100C28007401A807088002C333D8FCFF900111E0C3
:100C38009000006023E075F040A42489F582E43434
:100C480000F58375F008EB120AA6E5822DF582E41B
:100C58003583F583E04FF022E075F040A42489F550
:100C680082E43400F58375F008EB120AA6E5822DBC
:100C7800F582E43583F583E0FEEFF4FFEE5FFF9045
:100C88000000E075F040A42489F582E43400F5837F
:100C980075F008EB120AA6E5822DF582E43583F596
:040CA80083EFF022C4
:100E4B00900000E075F040A42489F582E43400F5AD
:100E5B008375F008ED120AA6E5822FF582E435833F
:050E6B00F583EBF0220D
:100E7000900000E06009E4F090000404F0800B9022
:100E800000007401F0E4900004F0900004E0FFE43E
:040E9000FD020D9AB8
:080D2C00EF24FEFF7B01E4FD52
:100D3400A903EFFB3395E0FAC3EB9480EA64809453
:100D44008050047E0180027E00C3EF648094804062
:100D5400047B0180027B00EE5B603AED6007C374A4
:100D64007F9FFC8002AC07EC900CAC93FEC4135440
:100D740007FDEE13135407FEEC935403FBD3EF6407
:100D84008094BF400474079BFBAF05AD069001112E
:060D9400E9F0120C282218
:1008000090010D7481F090010DE0FFD39400402D14
:10081000D3900003E09400900002E0648094804054
:1008200002D322120D2C120EB090010DE014FFE441
:10083000FBFD120D3490010DE014F080C9120EB0D2
:10084000E490010DF090010DE0FFC39488503290C8
:100850000003E09400900002E0648094804002D3A2
:10086000227B017D01120D34120EB090010DE024A7
:10087000F8FFE4FB7D01120D3490010DE004F080DF
:10088000C4120EB090010D7481F090010DE0FFD301
:1008900094004021D3900003E09400900002E064B3
:1008A0008094804002D322120D2C120EB090010DC4
:1008B000E014F080D5120EB0E490010DF090010D1F
:1008C000E0FFC394805028900003E0940090000261
:1008D000E0648094804002D322EF24F8FFE4FB7DA3
:1008E00001120D34120EB090010DE004F080CE7FA5
:0808F000607EEA120EB4C3227F
:1008F800C200C201E490010CF053877F7598504301
:100908008E04759CD9438E01438E10D2AC758CC071
:10091800F58AD28CD2A9D2AF900000E0FFE4FD1294
:100928000D9A900004E0FFE4FD120D9A3000761253
:100938000EC890010AE4F0A3EFF020011490010A18
:10094800E07004A3E064F270E3D20190010CF0803F
:10095800DB90010CE0C39440503B90010AA3E0FFF8
:10096800A3E0FE5407FD900004E075F040A424893C
:10097800F582E43400F583EE131313541F75F00861
:10098800120AA6E5822DF582E43583F583EFF0900F
:10099800010CE004F090010CE0C39440408E120E6C
:0C09A80070C2018087120800920080805D
:03000B000209B433
:1009B400C0E0C0F0C083C082C0D075D000C000C009
:1009C40004C005C006C007759000900109E4F090CA
:1009D4000109E0FFC39408505E7401A8070880026F
:1009E400C333D8FCF5A07F037E00120EB490000040
:1009F400E075F040A42489F582E43400F583C083D3
:100A0400C082900001E0D082D08375F008120AA65B
:100A1400C083C082900109E0D082D0832582F58210
:100A2400E43583F583E0F5807F037E00120EB490F5
:100A34000109E004F08098900001E0FF7401A80728
:100A4400088002C333D8FCF590900001E0045407F9
:100A5400F0758CC0758A00D007D006D005D004D0BC
:0C0A640000D0D0D082D083D0F0D0E0329F
:03000000020B9C54
:0C0B9C00787FE4F6D8FD758120020BE3A1
:100A7000C2D5EC30E709B2D5E4C39DFDE49CFCEEA1
:100A800030E715B2D5E4C39FFFE49EFE120AB2C35D
:100A9000E49DFDE49CFC8003120AB230D507C3E458
:060AA0009FFFE49EFE2210
:0C0AA600A42582F582E5F03583F583225B
:100BA8000208F8E493A3F8E493A34003F68001F263
:100BB80008DFF48029E493A3F85407240CC8C3334E
:100BC800C4540F4420C8834004F456800146F6DF1D
:100BD800E4800B0102040810204080900E94E47E0B
:100BE800019360BCA3FF543F30E509541FFEE49312
:100BF800A360010ECF54C025E060A840B8E493A3D9
:100C0800FAE493A3F8E493A3C8C582C8CAC583CA03
:100C1800F0A3C8C582C8CAC583CADFE9DEE780BEBB
:010EAF000042
:100AB200BC000BBE0029EF8DF084FFADF022E4CC28
:100AC200F875F008EF2FFFEE33FEEC33FCEE9DECF1
:100AD200984005FCEE9DFE0FD5F0E9E4CEFD22ED37
:100AE200F8F5F0EE8420D21CFEADF075F008EF2F81
:100AF200FFED33FD4007985006D5F0F222C398FD72
:050B02000FD5F0EA220E
:00000001FF
