:0C0BCD0041000000410002014100010055
:100BBB0075985A758920758E40758BFD758DFDD294
:020BCB008E2278
:080BE3003099FDC2998F99229F
:100B2B0090008AEBF0A3EAF0A3E9F090008AE0FBD7
:100B3B00A3E0FAA3E0F9120AF0601790008AA3E48D
:100B4B0075F001120B09A9F0FA120AF0FF120BE370
:030B5B0080D9221C
:080BEB003098FDC298AF992279
:080BDA007F077E02DEFEDFFA58
:010BE20022F0
:100BA700AD07AC06ED1DAE0470011C4E6005120BBF
:040BB700DA80F122CD
:080A9400900086EFF0A3EDF0E5
:100A9C00E4A3F0E4FD900087E0FC900086E0FF33D7
:100AAC0095E0FEEF7806C333CE33CED8F92403F5A8
:100ABC008274003EF583C083C082900088E0D082AF
:100ACC00D08375F008120B1FE5822DF582E4358377
:100ADC00F583ECF00DEDB408BC900088E004F0E078
:030AEC00B408B09B
:010AEF0022E4
:100A10007401A807088002C333D8FCFF900089E066
:100A20009000006023E075F040A42403F582E434D4
:100A300000F58375F008EB120B1FE5822DF582E4BB
:100A40003583F583E04FF022E075F040A42403F5F0
:100A500082E43400F58375F008EB120B1FE5822D5C
:100A6000F582E43583F583E0FEEFF4FFEE5FFF905F
:100A70000000E075F040A42403F582E43400F5831F
:100A800075F008EB120B1FE5822DF582E43583F536
:030A900083EFF001
:010A93002240
:100B5E00900000E075F040A42403F582E43400F523
:100B6E008375F008ED120B1FE5822FF582E43583B5
:050B7E00F583EBF022FD
:100B8300900000E06009E4F090000204F0800B9014
:100B930000007401F0E4900002F0900002E0FFE432
:040BA300FD020A94B1
:1008C700E4900084F0A3F075A882758801758CC048
:1008D700F58AD28C900000E0FFE4FD120A949000A4
:1008E70002E0FFE4FD120A94120BBB120BEB90001F
:1008F70084E07009EFB4F2F37401F080EE900085A4
:10090700E0C394405034E0FE5407FD900002E075C8
:10091700F040A42403F582E43400F583EE131313A7
:10092700541F75F008120B1FE5822DF582E43583FD
:10093700F583EFF0900085E004F0900085E0C39424
:100947004040A8E4FA7F407E1F120BA790008974ED
:1009570001F0FBFDFF120A107F407E1F120BA7E478
:10096700900089F07D017F01120A100AEAB40AD5C6
:0D097700120B83E4900084F0A3F00208F25C
:03000B00020800E8
:10080000C0E0C0F0C083C082C0D075D000C000C0BE
:0708100004C005C006C0078B
:10081700759000900083E4F0900083E0FFC3940894
:10082700505E7401A807088002C333D8FCF5A07F87
:10083700037E00120BA7900000E075F040A424038C
:10084700F582E43400F583C083C082900001E0D0D4
:1008570082D08375F008120B1FC083C0829000837B
:10086700E0D082D0832582F582E43583F583E0F5F5
:10087700807F037E00120BA7900083E004F080982E
:10088700900001E0FF7401A807088002C333D8FC79
:10089700F590900001E0C394075005E004F080054F
:0B08A700900001E4F0758CC0758A0021
:1008B200D007D006D005D004D000D0D0D082D083CB
:0508C200D0F0D0E0328F
:030000000209846E
:0C098400787FE4F6D8FD7581070209CBEE
:100AF000BB010689828A83E0225002E722BBFE0204
:090B0000E32289828A83E4932236
:100B0900A3F8E0C5F025F0F0E5821582700215839F
:060B1900E0C838F0E822FC
:0C0B1F00A42582F582E5F03583F58322E1
:100990000208C7E493A3F8E493A34003F68001F2AE
:1009A00008DFF48029E493A3F85407240CC8C33368
:1009B000C4540F4420C8834004F456800146F6DF37
:1009C000E4800B0102040810204080900BCDE47EEF
:1009D000019360BCA3FF543F30E509541FFEE4932C
:1009E000A360010ECF54C025E060A840B8E493A3F3
:1009F000FAE493A3F8E493A3C8C582C8CAC583CA1E
:100A0000F0A3C8C582C8CAC583CADFE9DEE780BED5
:010BD900001B
:00000001FF
