:100000000C9465000C948D000C948D000C948D0064
:100010000C948D000C948D000C948D000C94200990
:100020000C948D000C948D000C948D000C948D001C
:100030000C948D000C948D000C948D000C948D000C
:100040000C948E090C948D000C94C1060C94080736
:100050000C948D000C948D000C948D000C948D00EC
:100060000C948D000C948D000200000000240027E9
:10007000002A0000000000250028002B00000000DE
:1000800000230026002900040404040404040402DC
:100090000202020202030303030303010204081025
:1000A00020408001020408102001020408102000F2
:1000B0000000070002010000030406000000000029
:1000C000000000008A056E08830511241FBECFEFD3
:1000D000D8E0DEBFCDBF11E0A0E0B1E0EEEBF6E18D
:1000E00002C005900D92A832B107D9F712E0A8E23C
:1000F000B1E001C01D92A230B107E1F710E0C8ECF9
:10010000D0E004C02297FE010E944E0BC43CD107F0
:10011000C9F70E947C090C94520B0C940000CF93F9
:10012000DF93BC018230910510F462E070E0A09191
:100130000002B0910102ED01E0E0F0E040E050E0AB
:1001400021C0888199818617970769F48A819B81EC
:10015000309719F09383828304C0909301028093B7
:100160000002FE0134C06817790738F441155105C3
:1001700019F08417950708F4AC01FE018A819B8170
:100180009C01E9012097E9F641155105A9F1CA0141
:10019000861B970B049708F4BA01E0E0F0E02AC050
:1001A0008D919C91119784179507F9F46417750741
:1001B00081F412968D919C911397309719F0938347
:1001C000828304C09093010280930002FD01329665
:1001D0004CC0CA01861B970BFD01E80FF91F619304
:1001E000719302978D939C9340C0FD01828193810E
:1001F0009C01D9011097A1F68091FE019091FF0119
:10020000892B41F480910201909103019093FF01A9
:100210008093FE0140910401509105014115510563
:1002200041F44DB75EB78091000190910101481BE8
:10023000590B2091FE013091FF01CA01821B930BE3
:100240008617970780F0AB014E5F5F4F84179507C5
:1002500050F0420F531F5093FF014093FE01F901EC
:100260006193719302C0E0E0F0E0CF01DF91CF91A4
:100270000895CF93DF93009709F450C0EC012297C3
:100280001B821A82A0910002B0910102109709F11D
:1002900040E050E0AC17BD0708F1BB83AA83FE0124
:1002A00021913191E20FF31FAE17BF0779F48D91C1
:1002B0009C911197280F391F2E5F3F4F3983288358
:1002C00012968D919C9113979B838A8341155105BA
:1002D00071F4D0930102C093000220C012968D9158
:1002E0009C911397AD01009711F0DC01D3CFFA0177
:1002F000D383C28321913191E20FF31FCE17DF0721
:1003000069F488819981280F391F2E5F3F4FFA01C8
:10031000318320838A819B8193838283DF91CF9174
:100320000895DC0101C06D9341505040E0F70895FD
:10033000FC018CE091E0918380830895FC0163834C
:1003400082810E94D60A089560E00E949E0108956D
:10035000FC018CE091E091838083CF010E948B09A6
:1003600008950F931F938C01862F2CE031E0F80144
:10037000318320836283138261E00E94970AC8015F
:100380000E94A4011F910F910895FC0184E191E066
:10039000918380830895FC0184E191E091838083BF
:1003A000CF010E948B090895FC01828170E00E94B8
:1003B000370A0895FC01862F24E131E03183208340
:1003C000628361E00E94970A0895CF93DF93DC0176
:1003D0001496EC91149760FF16C02E2F30E0F901AF
:1003E000E957FF4FE4918E2F90E0880F991F8D58A9
:1003F0009F4FFC01C591D491888125563F4FF9014B
:100400009491892B16C02E2F30E0F901E957FF4F48
:10041000E4918E2F90E0880F991F8D589F4FFC011B
:10042000C591D491888125563F4FF90194919095BB
:10043000892388831596EC91159761FF16C02E2F9E
:1004400030E0F901E957FF4FE4918E2F90E0880FDB
:10045000991F8D589F4FFC01C591D49188812556D5
:100460003F4FF9019491892B16C02E2F30E0F901EE
:10047000E957FF4FE4918E2F90E0880F991F8D5818
:100480009F4FFC01C591D491888125563F4FF901BA
:10049000949190958923888316968C9162FF16C05B
:1004A000282F30E0F901E957FF4FE4918E2F90E0BB
:1004B000880F991F8D589F4FFC01A591B4918C9185
:1004C00025563F4FF9019491892B16C0282F30E013
:1004D000F901E957FF4FE4918E2F90E0880F991FA3
:1004E0008D589F4FFC01A591B4918C9125563F4F9B
:1004F000F9019491909589238C93DF91CF91089580
:100500006F73DC011796ED91FC911897E60FF11DC2
:1005100040830895CF93DF93742FE62FF0E0669524
:100520006695669521E030E040E050E004C0220F7F
:10053000331F441F551F6A95D2F7322F3095E7704D
:10054000F07063E0EE0FFF1F6A95E1F7EC01AF81F9
:10055000B885AE0FBF1F98E0672F70E08C9160FFE9
:1005600002C0822B01C083238C9391501196992352
:1005700021F075956795762FEFCFDF91CF91089594
:10058000262F30E0E3E035952795EA95E1F7DC0189
:100590001796ED91FC911897E20FF31F677081E0B9
:1005A00090E0A0E0B0E001C0880F6A95EAF7382F2C
:1005B000309528E050E0908140FF02C0982B01C0A8
:1005C00093239083215021F0389655954795F2CF8B
:1005D0000895742F262F30E0B3E035952795BA950E
:1005E000E1F74FE350E0421B530BDC011796ED910E
:1005F000FC911897E40FF51F6095677081E090E01B
:10060000A0E0B0E001C0880F6A95EAF7382F309576
:1006100028E0472F50E0908170FF02C0982B01C066
:1006200093239083215029F055954795742F38973F
:10063000F0CF08950F931F93CF93DF93DC01EB016D
:1006400074E0888168E0482F50E0EC9180FF17C08B
:100650002E2F30E0F901E957FF4FE4918E2F90E003
:10066000880F991F8D589F4FFC0105911491F80137
:10067000808125563F4FF9019491892B17C02E2F69
:1006800030E0F901E957FF4FE4918E2F90E0880F99
:10069000991F8D589F4FFC0105911491F80180819D
:1006A00025563F4FF901949190958923F801808355
:1006B0001396EC9113972E2F30E0F901E957FF4F75
:1006C000E4918E2F90E0880F991F8D589F4FFC0169
:1006D00005911491F801808125563F4FF9019491BD
:1006E00090958923F80180831396EC9113972E2F10
:1006F00030E0F901E957FF4FE4918E2F90E0880F29
:10070000991F8D589F4FFC0105911491F80180812C
:1007100025563F4FF9019491892BF8018083615050
:1007200021F055954795842F8ECF598148E0EC9163
:1007300057FF17C02E2F30E0F901E957FF4FE49122
:100740008E2F90E0880F991F8D589F4FFC010591C7
:100750001491F801808125563F4FF9019491892B1E
:1007600017C02E2F30E0F901E957FF4FE4918E2F8B
:1007700090E0880F991F8D589F4FFC0105911491AF
:10078000F801808125563F4FF90194919095892376
:10079000F80180831396EC9113972E2F30E0F90126
:1007A000E957FF4FE4918E2F90E0880F991F8D58E5
:1007B0009F4FFC0105911491F801808125563F4F10
:1007C000F901949190958923F80180831396EC9117
:1007D00013972E2F30E0F901E957FF4FE4918E2F48
:1007E00090E0880F991F8D589F4FFC01059114913F
:1007F000F801808125563F4FF9019491892BF8012A
:100800008083415011F0550F92CF715011F0229614
:1008100018CFDF91CF911F910F910895AF92BF92A2
:10082000DF92EF92FF920F931F93CF93DF938C0190
:10083000D62E862F90E0E3E0880F991FEA95E1F726
:10084000F80167817085680F791FC8010E941A033B
:10085000F8018181282F30E077E8A72E70E0B72ECD
:10086000F501E20FF31FE4918E2F90E0880F991F9E
:1008700053E7E52E50E0F52E8E0D9F1DFC01A5914E
:10088000B4918C91CBE9D0E02C0F3D1FF9019491EC
:10089000892B8C93F8018281282F30E0F501E20F3B
:1008A000F31FE4918E2F90E0880F991F8E0D9F1DEE
:1008B000FC01A591B4918C912C0F3D1FF9019491ED
:1008C000892B8C93F8018281282F30E0F501E20F0B
:1008D000F31FE4918E2F90E0880F991F8E0D9F1DBE
:1008E000FC01A591B4918C912C0F3D1FF9019491BD
:1008F000909589238C93C8016D2D0E94E501F80124
:10090000818190E0A80EB91EF501249130E0220FFC
:10091000331F2E0D3F1DF901A591B4912C91C80FE5
:10092000D91FFE018491809528232C93DF91CF91CC
:100930001F910F91FF90EF90DF90BF90AF900895BF
:10094000FC018781908570E040E450E00E949101B5
:100950000895FC01878190850E94390108958F9246
:100960009F92AF92CF92EF920F934C01DC016C9368
:1009700011964C93119712962C93129713960C93F1
:1009800013971496EC9214971596CC921597169689
:10099000AC9280E490E00E948F00F40187839087FE
:1009A000808161E00E94970AD40111968C9161E0E8
:1009B0000E94970AF401828161E00E94970AD401A3
:1009C00013968C9161E00E94970AF401848161E0A2
:1009D0000E94970AD40115968C9161E00E94970AB3
:1009E000F401868161E00E94970AD4011196EC918E
:1009F0002E2F30E0F901E957FF4FE4918E2F90E060
:100A0000880F991F8D589F4FFC01A591B4918C912F
:100A100025563F4FF9019491909589238C93C401F9
:100A20006FEF0E94A0040F91EF90CF90AF909F9036
:100A30008F900895813061F0813018F08230B1F4E8
:100A40000EC010923F0110923E0180E892E014C067
:100A500010923F0110923E018AE892E00DC0109280
:100A60003F0110923E0180EC92E006C010923F01DF
:100A700010923E0189EE92E090933D0180933C01FB
:100A80000895AF92CF92EF920F938130910509F5BF
:100A90006F5F7F4F99F588E291E069E048E021E1DE
:100AA0000AE073E0E72E54E0C52E35E0A32E0E9445
:100AB000AF0481E391E066E00E94B10185E391E03B
:100AC00067E00E94B10189E391E06BE00E94DA01E6
:100AD00015C0892B99F46F5F7F4F81F489E391E012
:100AE0000E94C50185E391E00E94980181E391E0B5
:100AF0000E94980188E291E00E94A9040F91EF9072
:100B0000CF90AF90089580E090E06FEF7FEF0E946C
:100B10004105089581E090E06FEF7FEF0E9441056D
:100B20000895EF92FF920F931F93609146016F5FBC
:100B300060934601615088E291E00E940E0452E009
:100B4000E52EFF24F394D5C08FEC91E00E94FA07C4
:100B5000082F60914101662349F4803F38F0863FB9
:100B600028F480930601F0924101BCC080910601F7
:100B7000823F09F46CC0833F30F4803F71F0813FC5
:100B800009F0AEC033C0843F09F494C0843F08F438
:100B90008DC0853F09F0A4C093C010E020913E01B4
:100BA00030913F0120FF12C0F901F595E795E85D0E
:100BB000FE4F0190F081E02D80913C0190913D012C
:100BC000E80FF91F0190F081E02D04C0E0913C0195
:100BD000F0913D0135952795C901885D9E4F612FA4
:100BE000402F09951F5F1034C9F67AC0613031F487
:100BF0000F7300934001E092410174C0623009F02C
:100C000071C020913E0130913F0120FF12C0F901D7
:100C1000F595E795E85DFE4F0190F081E02D80911C
:100C20003C0190913D01E80FF91F0190F081E02D0A
:100C300004C0E0913C01F0913D0135952795C90133
:100C4000885D9E4F60914001402F099549C02091D9
:100C50003E0130913F0120FF12C0F901F595E79563
:100C6000E85DFE4F0190F081E02D80913C01909174
:100C70003D01E80FF91F0190F081E02D04C0E091E3
:100C80003C01F0913D013595279561506F73C90185
:100C9000885D9E4F402F099580914101803410F06E
:100CA00080E001C08F5F809341011CC0802F0E94B3
:100CB0001A0516C089E391E0602F0E94D40110C08C
:100CC00010E0B8016170707081E391E00E949E01B4
:100CD00016950795017085E391E0602F0E949E01B3
:100CE000109241018FEC91E00E94C907892B09F015
:100CF0002BCF0E94D60920914201309143014091AF
:100D00004401509145012050384F4F4F5F4F6217BB
:100D100073078407950730F30E94D6096093420158
:100D20007093430180934401909345018091460163
:100D3000883010F0109246011F910F91FF90EF90B4
:100D4000089581E391E00E94A40185E391E00E946F
:100D5000A40189E391E06FEF0E94D401E1EBF0E0A0
:100D60008081887F8360808383E00E941A058FECF6
:100D700091E040E051EE60E070E00E94430708958A
:100D800008951F920F920FB60F9211242F933F9345
:100D90004F938F939F93EF93FF934091C6002091C1
:100DA0008701309188012F5F3F4F2F733070809102
:100DB000890190918A012817390759F0E09187013C
:100DC000F0918801E95BFE4F4083309388012093C6
:100DD0008701FF91EF919F918F914F913F912F91BB
:100DE0000F900FBE0F901F901895E091DB01F091CE
:100DF000DC01E05CFF4F8191919120813181821B68
:100E0000930B8F739070892B11F00E94C006089588
:100E10001F920F920FB60F9211242F933F938F932F
:100E20009F93EF93FF932091CB013091CC01809160
:100E3000CD019091CE012817390731F48091C1007E
:100E40008F7D8093C10014C0E091CD01F091CE015F
:100E5000E557FE4F20818091CD019091CE01019602
:100E60008F7390709093CE018093CD012093C60034
:100E7000FF91EF919F918F913F912F910F900FBE16
:100E80000F901F901895AF92BF92DF92EF92FF9252
:100E90000F931F93CF93DF93EC017A018B01DD2435
:100EA000403081EE580780E0680780E0780711F055
:100EB000DD24D39491E0A92EB12CEC89FD89DD20AD
:100EC00069F0C5010E8C02C0880F991F0A94E2F7E1
:100ED000808360E079E08DE390E005C0108260E8F7
:100EE00074E88EE190E0A80197010E942A0B21503E
:100EF000304040405040569547953795279580E1C2
:100F00002030380720F0DD2011F0DD24D6CFE8892D
:100F1000F9893083EA89FB892083EE89FF89408142
:100F200021E030E0C9010A8C02C0880F991F0A94A1
:100F3000E2F7482B4083EE89FF894081C9010B8C81
:100F400002C0880F991F0A94E2F7482B4083EE896C
:100F5000FF894081C9010C8C02C0880F991F0A9437
:100F6000E2F7482B4083EE89FF8980810D8C02C017
:100F7000220F331F0A94E2F7209528232083DF9164
:100F8000CF911F910F91FF90EF90DF90BF90AF90A6
:100F90000895DC011C96ED91FC911D97E05CFF4FDC
:100FA0002191319180819181281B390B2F733070F1
:100FB000C9010895DC011C96ED91FC911D97E05C40
:100FC000FF4F20813181E054F040DF01AE5BBF4F25
:100FD0008D919C9111972817390719F42FEF3FEF46
:100FE00007C08D919C91E80FF91F8081282F30E078
:100FF000C9010895DC011C96ED91FC911D97E05C00
:10100000FF4F20813181E054F040DF01AE5BBF4FE4
:101010008D919C9111972817390719F42FEF3FEF05
:1010200010C08D919C911197E80FF91F20818D912F
:101030009C91119701968F73907011969C938E934B
:1010400030E0C9010895FC0186859785DC01A05C2C
:10105000BF4FFC01EE5BFF4F2D913C9111978081BA
:10106000918128173907C1F70895CF93DF93EC01D9
:10107000EE85FF85E05CFF4F20813181E054F04038
:101080002F5F3F4F2F733070DF01AE5BBF4F8D91ED
:101090009C91119728173907D1F3E05CFF4F8081AD
:1010A0009181E054F040E80FF91F6083EE85FF85E1
:1010B000E05CFF4F31832083EE89FF89208181E04E
:1010C00090E00D8C02C0880F991F0A94E2F7282B3C
:1010D000208381E090E0DF91CF9108951092D201BA
:1010E0001092D10188EE93E0A0E0B0E08093D301AC
:1010F0009093D401A093D501B093D6018CE191E0F7
:101100009093D0018093CF0187E491E09093DC012C
:101110008093DB018BE891E09093DE018093DD0109
:1011200085EC90E09093E0018093DF0184EC90E007
:101130009093E2018093E10180EC90E09093E401D0
:101140008093E30181EC90E09093E6018093E501C8
:1011500086EC90E09093E8018093E70184E080932F
:10116000E90183E08093EA0187E08093EB0185E069
:101170008093EC0181E08093ED010895CF92DF929E
:10118000EF92FF920F931F93CF93DF937C016B013C
:101190008A01C0E0D0E00FC0D6016D916D01D7018A
:1011A000ED91FC910190F081E02DC7010995C80FE8
:1011B000D91F015010400115110571F7CE01DF91C3
:1011C000CF911F910F91FF90EF90DF90CF900895F6
:1011D000813041F0813018F08230D1F409C0109292
:1011E0006E00089580916F008D7F80936F00089549
:1011F000809170008D7F8093700081E08093B000BB
:101200008091B100887F84608093B1001092B30018
:1012100008951F93182F80910701811711F09FEFF8
:1012200006C0E8E6F0E094918FEF80930701892FE4
:101230000E94E808812F60E00E94D60A1F9108955D
:101240001F920F920FB60F9211242F933F934F933B
:101250005F936F937F938F939F93AF93BF93EF931E
:10126000FF938091EE019091EF01A091F001B09178
:10127000F1010097A105B10551F1E091F201F09162
:10128000F30180819091F401892780838091EE01A0
:101290009091EF01A091F001B091F101181619069B
:1012A0001A061B06C4F48091EE019091EF01A09103
:1012B000F001B091F1010197A109B1098093EE010C
:1012C0009093EF01A093F001B093F10104C08091DD
:1012D00007010E940909FF91EF91BF91AF919F9182
:1012E0008F917F916F915F914F913F912F910F90CF
:1012F0000FBE0F901F901895CF93DF930E94FC09AB
:101300000E94A106C5EFD6E00E9491052097E1F367
:101310000E94F506F9CF0E94390108951F920F929D
:101320000FB60F9211242F933F938F939F93AF93F8
:10133000BF938091F9019091FA01A091FB01B091C6
:10134000FC013091FD010196A11DB11D232F2D5FE0
:101350002D3720F02D570196A11DB11D2093FD01C1
:101360008093F9019093FA01A093FB01B093FC01E3
:101370008091F5019091F601A091F701B091F801EB
:101380000196A11DB11D8093F5019093F601A093E4
:10139000F701B093F801BF91AF919F918F913F9169
:1013A0002F910F900FBE0F901F9018959FB7F89434
:1013B0002091F5013091F6014091F7015091F8012B
:1013C00086B5A89B06C08F3F21F02F5F3F4F4F4F40
:1013D0005F4F9FBF542F432F322F2227280F311DDD
:1013E000411D511D82E0220F331F441F551F8A9556
:1013F000D1F7B901CA010895789484B5826084BD9B
:1014000084B5816084BD85B5826085BD85B5816008
:1014100085BDEEE6F0E0808181608083E1E8F0E068
:101420001082808182608083808181608083E0E897
:10143000F0E0808181608083E1EBF0E08081846076
:101440008083E0EBF0E0808181608083EAE7F0E078
:1014500080818460808380818260808380818160DC
:1014600080838081806880831092C10008951F93DB
:10147000CF93DF93182FEB0161E00E94970A20972A
:1014800009F44AC0CF3FD10509F449C0E12FF0E08B
:10149000E155FF4F84918330C1F0843028F48130CE
:1014A00051F08230B1F50CC0863019F1873049F126
:1014B000843079F514C084B5806884BDC7BD33C05D
:1014C00084B5806284BDC8BD2EC0809180008068D4
:1014D00080938000D0938900C093880024C08091BD
:1014E0008000806280938000D0938B00C0938A003C
:1014F0001AC08091B00080688093B000C093B300A0
:1015000012C08091B00080628093B000C093B4009C
:101510000AC0C038D1051CF4812F60E002C0812FC1
:1015200061E00E94D60ADF91CF911F910895CF9379
:10153000DF93482F50E0CA0185569F4FFC0134913C
:1015400049575F4FFA018491882369F190E0880F31
:10155000991FFC01E759FF4FA591B491FC01ED588B
:10156000FF4FC591D491662351F42FB7F8948C9115
:10157000932F909589238C93888189230BC06230A7
:1015800061F42FB7F8948C91932F909589238C93C5
:101590008881832B88832FBF06C09FB7F8948C91D6
:1015A000832B8C939FBFDF91CF910895482F50E0FC
:1015B000CA0181559F4FFC012491CA0185569F4F56
:1015C000FC01949149575F4FFA013491332309F498
:1015D00040C0222351F1233071F0243028F421300F
:1015E000A1F0223011F514C02630B1F02730C1F03F
:1015F0002430D9F404C0809180008F7703C080919B
:1016000080008F7D8093800010C084B58F7702C0EA
:1016100084B58F7D84BD09C08091B0008F7703C0F1
:101620008091B0008F7D8093B000E32FF0E0EE0F4B
:10163000FF1FED58FF4FA591B4912FB7F894662383
:1016400021F48C919095892302C08C91892B8C93E5
:101650002FBF0895A1E21A2EAA1BBB1BFD010DC0CE
:10166000AA1FBB1FEE1FFF1FA217B307E407F50752
:1016700020F0A21BB30BE40BF50B661F771F881F2E
:10168000991F1A9469F760957095809590959B01C4
:10169000AC01BD01CF010895EE0FFF1F0590F4913D
:1016A000E02D099410E0C8ECD0E004C0FE010E94D7
:0E16B0004E0B2296CA3CD107C9F7F894FFCF23
:1016BE00200002020000F0FF000000009801A801C7
:1016CE0000000000C501CB01000000003508BE0877
:0816DE00C907FA07DA07230827
:107E0000112484B714BE81FFF0D085E080938100F7
:107E100082E08093C00088E18093C10086E0809377
:107E2000C20080E18093C4008EE0C9D0259A86E02C
:107E300020E33CEF91E0309385002093840096BBD3
:107E4000B09BFECF1D9AA8958150A9F7CC24DD24C4
:107E500088248394B5E0AB2EA1E19A2EF3E0BF2EE7
:107E6000A2D0813461F49FD0082FAFD0023811F036
:107E7000013811F484E001C083E08DD089C08234E0
:107E800011F484E103C0853419F485E0A6D080C0E4
:107E9000853579F488D0E82EFF2485D0082F10E0AE
:107EA000102F00270E291F29000F111F8ED06801E7
:107EB0006FC0863521F484E090D080E0DECF843638
:107EC00009F040C070D06FD0082F6DD080E0C81688
:107ED00080E7D80618F4F601B7BEE895C0E0D1E017
:107EE00062D089930C17E1F7F0E0CF16F0E7DF06D8
:107EF00018F0F601B7BEE89568D007B600FCFDCFD4
:107F0000A601A0E0B1E02C9130E011968C91119780
:107F100090E0982F8827822B932B1296FA010C0160
:107F200087BEE89511244E5F5F4FF1E0A038BF0790
:107F300051F7F601A7BEE89507B600FCFDCF97BE46
:107F4000E89526C08437B1F42ED02DD0F82E2BD052
:107F50003CD0F601EF2C8F010F5F1F4F84911BD097
:107F6000EA94F801C1F70894C11CD11CFA94CF0C13
:107F7000D11C0EC0853739F428D08EE10CD085E9AC
:107F80000AD08FE07ACF813511F488E018D01DD067
:107F900080E101D065CF982F8091C00085FFFCCF94
:107FA0009093C60008958091C00087FFFCCF809118
:107FB000C00084FD01C0A8958091C6000895E0E648
:107FC000F0E098E1908380830895EDDF803219F02E
:107FD00088E0F5DFFFCF84E1DECF1F93182FE3DFCA
:107FE0001150E9F7F2DF1F91089580E0E8DFEE27F6
:047FF000FF270994CA
:027FFE00040479
:0400000300007E007B
:00000001FF

