:04000000020029329F
:01000B0032C2
:0100130032BA
:01001B0032B2
:0300230002009543
:13008200750800E4F509F50AF50BF50CF50DF50E020026DF
:030026000202BF14
:20009500C021C0E0C0F0C082C083C007C006C005C004C003C002C001C000C0D075D000C2E2
:2000B500AF109802804CE509B50B15E50AB50C10C3E4950D7480850EF063F08095F04032F9
:2000D500E50B2441F582E50C3400F583E599F0850B82850C83A3750F807510001204338514
:2000F500820B85830CAE0DAF0E74012EF50DE43FF50ED2AFD0D0D000D001D002D003D004CC
:20011500D005D006D007D083D082D0F0D0E0D02132C2AFE50D450E70067EFF7FFF803BE549
:20013500092441F582E50A3400F583E0FE7F00850982850A83A3750F808F10C007C00612C6
:20015500043385820985830AD006D007AC0DAD0EEC24FFF50DED34FFF50ED2AF8E828F8339
:2001750022120126AE82AF838E048F05BEFF06BFFF030080EC8C82227F077E02DEFEDFFAAC
:2001950022AE82AF838E048F051EBEFF011FEC4D600DC007C00612018DD006D00780E6229D
:2001B5007F008F068EF005F07401800225E0D5F0FBF5A07580FF0FBF080040E622AF82E52A
:2001D5000F75F008A42401FD740035F0FEE5102DF582E43EF5838FF005F07401800225E08E
:2001F500D5F0FBF022C3E4950D7480850EF063F08095F05002D3227F00BF0800400302022C
:20021500A8EF75F008A42401FD740035F0FEE5082DF582E43EF583E0F5A0900003C007125C
:200235000196D007AE088EF005F07401800225E0D5F0FBFE74FFC39EF590900003C0071293
:200255000196D007EF700575807F8036BF01057580BF802EBF02057580DF8026BF030575EA
:2002750080EF801EBF04057580F78016BF05057580FB800EBF06057580FD8006BF0703754B
:2002950080FE900003C0071201961201B5D0070F02020EAE087F008E828F83A3750F088FF3
:2002B50010120433AE828E08C322C202C200C2017E007F0053877F759850438E04759CD96A
:2002D500438E01438E10D2AC758CC0758A00D2AF2002030203ADC007C006120176AD82D0AB
:2002F50006D0078D047D00200021BCF20EBD000B200108D2007E007F0080D5C2023001D027
:200315008C03900040EBF0C20180C5C3743E9E74808FF063F08095F0406C750F08751000EB
:200335008E828F83C007C006C005C004120469AA82AB83D004D005D006D007EBC40354F843
:20035500CAC403CA6ACA54F8CA6AFBEA2401FAEB3400FB750F087510008E828F83C007C0A1
:2003750006C005C004C003C002120433A882A983D002D003D004D005D006D007E82AF58231
:20039500E93BF583ECF0BE3E07BF0004D201C2000EBE00010F0202E5C007C0061201FAD046
:0803B50006D00792020202E5E6
:06005800E478FFF6D8FD7C
:200036007900E94400601B7A009004A578C175A000E493F2A308B8000205A0D9F4DAF27507
:02005600A0FF09
:2003BD00E50F451060467A01E50F25E0F50FE510334012F510E582950FE583951040030AD5
:2003DD0080E6C3E51013F510E50F13F50FC3E582950FF5F0E58395104005F58385F082C388
:0D03FD00E51013F510E50F13F50FDAE122FE
:20005E007800E84400600A790175A000E4F309D8FC78C0E84400600C7901900001E4F0A3DF
:04007E00D8FCD9FAD7
:20040A007A10E4FBFCE58225E0F582E58333F583EB33FBEC33FCEB950FF5F0EC95104006F8
:09042A00FCABF0438201DADD2293
:0D0029007581211204A1E58260030200260A
:20043300C2D5E58330E70DD2D5E4C39582F582E49583F583E51030E70BE4C3950FF50FE4EC
:160453009510F5101203BD30D50BE4C39582F582E49583F583223C
:20046900C2D5E58330E70DD2D5E4C39582F582E49583F583E51030E70DB2D5E4C3950FF520
:180489000FE49510F51012040A30D50BE4C39582F582E49583F58322C3
:0404A100758200223E
:00000001FF
