:04000000020029329F
:03000B000204CB21
:0100130032BA
:01001B0032B2
:0300230002009B3D
:19008200750800750901750A00E4F50BF50CF50DF50EF50FF510020026CF
:03002600020426AB
:20009B00C021C0E0C0F0C082C083C007C006C005C004C003C002C001C000C0D075D000C2DC
:2000BB00AF109802804AE50BB50D15E50CB50E10C3E4950F74808510F063F08095F04030EB
:2000DB00E50D2481F582E50E3400F583E599F0850D82850E83A37513807514001205D1851F
:2000FB00820D85830E7401250FF50FE43510F510D2AFD0D0D000D001D002D003D004D00555
:20011B00D006D007D083D082D0F0D0E0D02132C2AFE50F451070067EFF7FFF8036E50B24EA
:20013B0081F582E50C3400F583E0FE7F00850B82850C83A37513808F14C007C0061205D1C9
:20015B0085820B85830CD006D007150F74FFB50F021510D2AF8E828F832212012AAE82AF4E
:20017B00838E048F05BEFF06BFFF030080EC8C82227F077E02EE14FDFE70FAEF14FEFF70BE
:20019B00F222AE82AF838E048F051EBEFF011FEC4D600DC007C00612018CD006D00780E6C8
:2001BB0022E58275F040A4FEAFF07D00EDC40354F8FC7B00EE2401F9EF3400FAEC29F9E4A6
:2001DB003AFAEB29F582E43AF583E513F00BBB080040E10DBD080040D322AF828FF005F02C
:2001FB007401800225E0D5F0FBFFE515604AE50875F040A42401FD740035F0FEE514C403D6
:20021B0054F8FC2DFDE43EFEE513FB2DFDE43EFEE50875F040A42401F9740035F0FAEC29F8
:20023B00F9E43AFAEB29F582E43AF583E0FCEF42048D828E83ECF022E50875F040A42401E7
:20025B00FD740035F0FEE514C40354F8FC2DFDE43EFEE513FB2DFDE43EFEE50875F040A42A
:20027B002401F9740035F0FAEC29F9E43AFAEB29F582E43AF583EFF4FFE052078D828E8330
:20029B00EFF022AF82E50875F040A42401FD740035F0FEE513C40354F82DFDE43EFEEF2DB1
:2002BB00F582E43EF583E514F022E508600875080075090180067508017509007513008527
:2002DB0009820201BCAF82BF8000E43330E03DE5116007747FC39FFE80028F06EE90060B8F
:2002FB0093FEC4035407FD530507EE0303543FFC530407530603EF24C050057407C39EFE95
:20031B008C138E148512158D820201F5227F81C3E4950F74808510F063F08095F05002D36B
:20033B0022EF24FEF582751100751201C0071202E0901F4012019DD007EF14FE75110075BD
:20035B0012008E82C0061202E0D0068E07EF70BF901F4012019D7F00C3E4950F748085102B
:20037B00F063F08095F05002D3227511017512018F82C0071202E0901F4012019DD007EF93
:20039B0024F8F582751101751200C0071202E0D0070FBF880040C1901F4012019D7F81C356
:2003BB00E4950F74808510F063F08095F05002D322EF24FEF582751100751201C007120211
:2003DB00E0901F4012019DD007DFD4901F4012019D7F00C3E4950F74808510F063F08095AF
:2003FB00F05002D322EF24F8F582751101751200C0071202E0901F4012019DD0070FBF809C
:20041B000040D090EA6012019DC322C201C2007F0053877F759850438E04759CD9438E01F7
:20043B00438E10D2AC758CC0758A00D28CD2A9D2AF751300850882C0071201BC75130085EE
:20045B0009821201BCD00730015BC007120175AE82D0078E057E0020000CBDF2EABE00E7F3
:20047B00D2007F0080E1BF4000502AE50975F040A42401FB740035F0FCEFC423541FC4033A
:20049B0054F8FA2BFBE43CFC74075F2BF582E43CF583EDF00FBF400040ADC0071202C5D05D
:2004BB0007C20080A2C007120328D00792018097C021C0E0C0F0C082C083C007C006C005A9
:2004DB00C004C003C002C001C000C0D075D0007590007F008FF005F07401800225E0D5F0A9
:2004FB00FBF5A0900003C00712019DD007E50875F040A42401FD740035F0FEE50AC4035477
:20051B00F82DFDE43EFEEF2DF582E43EF583E0F580900003C00712019DD0070FBF08004005
:20053B00B3850AF005F07401800225E0D5F0FBF590AE0A7F008E828F83A37513088F1412F7
:20055B0005D1AE828E0A758CC0758A00D0D0D000D001D002D003D004D005D006D007D08393
:09057B00D082D0F0D0E0D0213292
:20060B000020406080A0C0E0E4E8ECF0F4F8FCDCBC9C7C5C3C1C1814100C080425456585B3
:20062B00A5C5C9CDD1D5D9B99979593935312D294A6A8AAAAEB2B6967656524E6F8F937313
:20064B006F8F93734A6A8AAAAEB2B6967656524E25456585A5C5C9CDD1D5D9B9997959395B
:20066B0035312D290020406080A0C0E0E4E8ECF0F4F8FCDCBC9C7C5C3C1C1814100C0804EB
:06005800E478FFF6D8FD7C
:200036007900E94400601B7A0090068B780175A001E493F2A308B8000205A0D9F4DAF275DE
:02005600A0FF09
:20058400E513451460467A01E51325E0F513E514334012F514E5829513E583951440030AEC
:2005A40080E6C3E51413F514E51313F513C3E5829513F5F0E58395144005F58385F082C3A7
:0D05C400E51413F514E51313F513DAE12225
:20005E007800E84400600A790175A000E4F309D8FC7800E84401600C7901900001E4F0A39E
:04007E00D8FCD9FAD7
:0D002900758121120607E5826003020026A2
:2005D100C2D5E58330E70DD2D5E4C39582F582E49583F583E51430E70BE4C39513F513E441
:1605F1009514F51412058430D50BE4C39582F582E49583F58322CC
:0406070075820022D6
:00000001FF
