:101164005151514A4A4A4444181C18181818183C3A
:101174003C666630180C06F63C6660386060663C77
:1011840030383C3E367E30303C3C181818183C3C15
:1011940066FFFFFF7E3C18186666666666667E3CE0
:1011A40081FF8100FF81817E00FF898900F8272764
:1011B400F8008F8989F900FF8181FF00FF0909097F
:1011C40001000101FF0101000020406080A0C0E097
:1011D400E4E8ECF0F4F8FCDCBC9C7C5C3C1C1814EB
:1011E400100C080425456585A5C5C9CDD1D5D9B947
:1011F4009979593935312D294A6A8AAAAEB2B696F7
:101204007656524E6F8F93736F8F93734A6A8AAA7E
:10121400AEB2B6967656524E25456585A5C5C9CD5E
:10122400D1D5D9B99979593935312D290020406062
:1012340080A0C0E0E4E8ECF0F4F8FCDCBC9C7C5C4E
:101244003C1C1814100C08040020406080A0C0E06E
:10125400E4E8ECF0F4F8FCDCBC9C7C5C3C1C18146A
:10126400100C08040001020304050616263646562F
:10127400666564636261605040302010FF89F593B5
:1012840093F589FF0E1F3F7E7E3F1F0E183C7EFFA5
:101294001818181800010223050607060523020181
:0112A4000049
:03000300010800F1
:0F21080075A882758801758CC0E4F58AD28C2287
:082133007F077E02DEFEDFFAE9
:01213B002281
:0720A5001220877F107E2747
:1020AC00AD07AC06ED1DAE0470011C4E600512218F
:0420BC003380F1225A
:1020C0007401A805088002C333D8FC5207EF6004EE
:0820D0007E018002E4FEAF0670
:0120D80022E5
:1020F100EF75F00A84FE75F00AA4FDC3EF9DC39449
:062101000540010EAF06CF
:0121070022B5
:0D212600C3EF648094805004EFF404FF22A6
:061FBE008B618A62896359
:101FC400AB64AA65A96612198DFFAB61AA62A96305
:101FD40012198DFED39F400EEF1219A6AB64AA65A9
:061FE400A966EE1219A629
:011FEA0022D4
:0F211700EFC39D5002AF05EFC39B5002AF0322F1
:1020D900E4FEE4FDEE75F008A424092DF8A6070D29
:0720E900BD08F10EBE08EB7B
:0120F00022CD
:041EEC008F828E83D0
:101EF0007A06C3EA6480947D4046EA648094804018
:101F00001CE4FBEB75F008A4240A2AF8E6FFEB7545
:101F1000F008A424092AF8A6070BBB08E6C3EA6464
:101F20008094845011E4FBEB75F008A4240D2AF88A
:101F3000E4F60BBB08F1AF82AE831220AC1A80B27C
:011F4000227E
:102018007401A807088002C333D8FCFFF4FEE572F8
:10202800600DEB75F008A424092DF8E64FF622EBB5
:0B20380075F008A424092DF8E65EF600
:01204300227A
:101FEB00E4FEEF75F008A42464F582E43411F58364
:101FFB00E5822EF582E43583F583E493FCEE75F0F0
:0C200B0008A424092DF8A6040EBE08D677
:0120170022A6
:091E2C00E54924FEFF7B01E4FD01
:041E3500AE07A90348
:101E3900EEFB3395E0FAC3EB9480EA64809480501A
:101E4900047F0180027F00C3EE6480948040047B9C
:101E59000180027B00EF5B6033ED6007C3747F9EF6
:101E6900FC8002AC06EC9011CC93FDC4135407FF1F
:101E7900ED13135407FDEC935403FBD3EE648094E4
:0C1E8900BF400474079BFB8972122018F4
:011E9500222A
:1012A500744B254AF8E6FF75F01C8485F055E55525
:1012B50090124C93FEC4135407F553EE13135407C1
:1012C500F554EF24F2FFE434FFFE7C007D1C121977
:1012D500CA8D55E55593FFC4135407F556EF1313FF
:1012E5005407F557855664F565854A66756701ABFC
:0512F5004AAD54AF53A7
:0612FA00A907AE03AC05DC
:10130000C3E56499F56CC3E5659CF56DC3E5669E20
:10131000F56EAF6C122126AA07AF6D122126AD071C
:10132000AF6E122126AB07AF021221178F68E97545
:10133000F00AA4F569EC75F00AA4F56AEE75F00AF6
:10134000A4F56BAF6CEF3395E0FE7C007D0A1219BB
:10135000B8E568FB3395E0FAAD03FC121A1F8F6CF9
:10136000AF6DEF3395E0FE7C007D0A1219B8AD0336
:10137000AC02121A1F8F6DAF6EEF3395E0FE7C004A
:101380007D0A1219B8AD68ED3395E0FC121A1F8F73
:101390006EE4FAC3E5686480F8EA6480985034AF7C
:1013A000691220F1C007AF6A1220F1AC07AF6B12CF
:1013B00020F1AB07856772AD04D007122018E56CE9
:1013C0002569F569E56D256AF56AE56E256BF56BAE
:0F13D0000A80C0856772AB66AD65AF64022018F6
:100BF700744B254AF8E675F0188485F051E5519055
:100C0700126893FFC4540FF54FEF540FF550E54F9B
:100C170004F55BE55004F55C755D01755E01755F74
:070C270001E4FBAD50AF4FEB
:060C2E008F588D598B5A0E
:100C3400E4F560F56475650075665BFB7A007958C8
:100C4400121FBE75640075650075665C7B007A00D2
:100C54007959121FBE75640075650075665D7B0069
:100C64007A00795A121FBEAF58EFD3955B501074B7
:100C740001A807088002C333D8FC42600F80EAE56C
:100C84005F70036360FFE55E6050E55F6026AF5A06
:100C9400EFD3955D4003020E29AC59ECD3955C501B
:100CA40010EC75F008A424092FF8E64560F60C80D2
:100CB400EA0F80DCAF5AEFD3955D4003020E29ACF6
:100CC40059ECD3955C5010EC75F008A424092FF866
:100CD400E65560F60C80EA0F80DCE55F603EE5597E
:100CE40075F008A42409255AF8E64560F6E55C7514
:100CF400F008A42409255AF8E64560F6E55975F08C
:100D040008A42409255DF8E64560F6E55C75F0085D
:100D1400A42409255DF8E64560F6803CE55975F0A4
:100D240008A42409255AF8E65560F6E55C75F00830
:100D3400A42409255AF8E65560F6E55975F008A487
:100D44002409255DF8E65560F6E55C75F008A424F1
:100D540009255DF8E65560F6AE5B7401A8060880C7
:100D640002C333D8FCFEAD587401A805088002C341
:100D740033D8FC4EF560E55F70036360FFE55F60A8
:100D840052AC5AECD3955D5021AF59EFD3955C50DA
:100D940010EF75F008A424092CF8E64560F60F80DE
:100DA400EAC3E55D955A2CFC80D9AC59ECD3955C2B
:100DB4005073AF5AEFD3955D5010EC75F008A4242E
:100DC400092FF8E64560F60F80EAC3E55C95592CD7
:100DD400FC80D9AC5AECD3955D5021AF59EFD39533
:100DE4005C5010EF75F008A424092CF8E65560F661
:100DF4000F80EAC3E55D955A2CFC80D9AC59ECD33D
:100E0400955C5021AF5AEFD3955D5010EC75F00806
:100E1400A424092FF8E65560F60F80EAC3E55C9533
:050E2400592CFC80D9EF
:010E290022A6
:101A5500744D254CF8E6FDC37407954CF55B8D5C1C
:0C1A6500F55DE4F55E755F01AB4CAF4C25
:061A71008F588D598B5ABD
:101A770075640075650075665D7B007A00795A129A
:101A87001FBEE55E6023855A60E560D3955D506DA6
:101A9700855B64855C65856066855F67AB60AD590E
:101AA700AF581212FA056080E0855B64855C658536
:101AB7005A66855F67AB5AAD59AF581212FA855B04
:101AC70064855C65855D66855F67AB5DAD59AF58BD
:101AD7001212FA855B64855C65855D66855F67AB19
:101AE7005AAD5CAF5B1212FA855864855965855DFE
:0D1AF70066855F67AB5AAD59AF581212FA01
:011B040022BE
:062068008F79AC03AA050C
:10206E00E4F9AD01AF791220C08F72AF02AD04ABAF
:08207E000112201809B908EA5B
:012086002237
:101B9E008F778D78C3E5776480948040047F0180D1
:101BAE00027F00C3E5776480948850047E01800232
:101BBE007E00EE5F600DC374079577FBE4FDAF7892
:101BCE00122068C3E5776480948840047F01800208
:101BDE007F00C3E5776480949050047E0180027E7E
:101BEE0000EE5F600CE57724F8FDE4FBAF78122081
:101BFE0068C3E5776480949040047F0180027F0083
:101C0E00C3E5776480949850047E0180027E00EED6
:101C1E005F600CE57724F0FB7D07AF781220682219
:041E96008E738F7444
:101E9A00757617D3E576648094584045E4F575E580
:101EAA00762575FFC36480948040047E0180027E9B
:101EBA0000C3EF6480949850047D0180027D00ED98
:101ECA005E600AE5759011A493FD121B9E0575E5E7
:101EDA0075C3942840C9AF74AE731220AC157680CE
:011EEA00B245
:011EEB0022D4
:1017F0007D107C277F011218237D107C277F021229
:1018000018237D107C277F031218237D107C27E48A
:10181000FF1218237D107C277F011218237D107C76
:03182000277F021D
:041823008D828C83A3
:10182700EF607C24FE602F146054240260030218CA
:10183700C3E4FBEB75F008A42410F8E4F6EBFFC350
:1018470074069FFF74412FF876FFAF82AE83122094
:10185700AC0BBB07DE22E4FBEBFFC374079FFF74EF
:10186700412FF8E4F6C374069B75F008A42409F821
:1018770076FFAF82AE831220AC0BBB07DB22E4FB03
:10188700C374079B75F008A42409F8E4F6740A2BBF
:10189700F876FFAF82AE831220AC0BBB07E222E4DF
:1018A700FB74092BF8E4F6EB75F008A42418F87616
:0C18B700FFAF82AE831220AC0BBB07E534
:0118C3002202
:0613DF007D107C277F0158
:0413E5008D828C83E6
:1013E900EF70030214BD24FE604914700302147CDB
:1013F900240260030214F9E4F558E4F5648558659C
:10140900756607F567FBAD58FF1212FAE55804FF38
:10141900F564756507756607756701E4FB7D071255
:1014290012FAAF82AE831220AC0558E558C394076F
:1014390040C822E4F558855864756507756607E460
:10144900F567FB7D07AF581212FAC374069558FD6C
:10145900756407F565756607756701E4FB7F071213
:1014690012FAAF82AE831220AC0558E558C394072F
:1014790040C422E4F558C374079558FD756407F50F
:1014890065756607E4F567FB7F071212FAC37406F0
:101499009558FFF564E4F565756607756701FBFD09
:1014A9001212FAAF82AE831220AC0558E558C394E4
:1014B9000740C322E4F558C374079558FFF564E45F
:1014C900F565756607F567FBFD1212FAE55804FD27
:1014D900E4F5648D65756607756701FBFF1212FAFD
:1014E900AF82AE831220AC0558E558C3940740C7B4
:0114F90022D0
:0D1002007F307E751220ACAD4BAC4A7F01F3
:04100F008C4C8D4D2B
:10101300EF700302111424FE60591470030210C30D
:1010230024026003021163E4F54E755B07C3740782
:10103300954EF55C755D07755E01755F01E4FBAD6B
:101043004EFF121A71AF4DAE4C1220ACE54EC39455
:10105300075016E4F55B854E5C755D07755E01F51B
:101063005FFB7D037F03121A71054EE54EC394089F
:1010730040B822E4F54EC37407954EFF854E5B7569
:101083005C07755D07755E01755F01E4FBFD121A70
:1010930071AF4DAE4C1220ACE54EC394075017858B
:1010A3004E5B755C07755D07755E01E4F55FFB7D5F
:1010B300047F03121A71054EE54EC3940840B7220C
:1010C300E4F54E755B07C37407954EF55C755D07D4
:1010D300755E01755F01E4FBAD4EFF121A71AF4DF2
:1010E300AE4C1220ACE54EC39407501B755B07C38F
:1010F3007407954EF55C755D07755E01E4F55FFB5E
:101103007D047F04121A71054EE54EC3940840B363
:1011130022E4F54EC37407954EFF854E5B755C075D
:10112300755D07755E01755F01E4FBFD121A71AF12
:101133004DAE4C1220ACE54EC39407501AC374074E
:10114300954EF55BE4F55C755D07755E01F55FFB38
:101153007D037F04121A71054EE54EC3940840B413
:011163002269
:061F8C008F4BAB05AA0417
:101F9200E4F54CE4FFE54B75F008A424092FF8C0E2
:101FA20000E6C313D000F60FBF08EAAF03AE021279
:0B1FB20020AC054CE54CC3940840D85F
:011FBD002201
:0618C4008F4A8C4B8D4C95
:1018CA00E4F54EF54DE54DC394075018E54D04FF78
:1018DA00F55B755C07755D07755E01755F01E4FB75
:1018EA00FD121A71854E5B755C07755D07755E01A1
:1018FA00E4F55FFBFDAF4E121A71E4FFE54D04F506
:10190A004EE4FEEED3954D50107401A806088002ED
:10191A00C333D8FC42070E80EAE4FEEE75F008A451
:10192A00240CF8E6FDE54A75F008A42464F582E47F
:10193A003411F583E5822EF582E43583F583E49349
:10194A005F4DF6EE75F008A4240DF8E6FDE54A753C
:10195A00F008A42464F582E43411F583E5822EF5B7
:10196A0082E43583F583E4935F4DF60EBE08ACAF8F
:10197A004CAE4B1220AC054DE54DC3940850030202
:02198A0018CF74
:01198C002238
:10208700E4FFE4FEEF75F008A424092EF8C000E68B
:0D20970025E0D000F60EBE08EB0FBF08E5F7
:0120A4002219
:101DC100E4FF1220D9E4FD0F121FEB7F607EEA12BF
:101DD10020ACE4FD7F02121FEB7F607EEA1220AC93
:101DE100E4FD7F03121FEB7F607EEA1220ACE4FD6D
:101DF1007F04121FEB7F607EEA1220AC7F607EEAD7
:101E01001220ACE4FF1220D97F307E75121E967D20
:101E110007E4FF121FEB7F607EEA1220AC7F707E29
:0B1E210017121EEC7F607EEA0220AC6E
:101B0500754981121E2C7F407E1F1220ACE54914B9
:101B1500FFE4FBFD121E351549E549D3940050E35A
:101B25007F407E1F1220ACE4F5497B017D01AF4962
:101B3500121E357F407E1F1220ACE54924F8FFE4D4
:101B4500FB7D01121E350549E549C3948840DB7FBD
:101B5500407E1F1220AC754981121E2C7F407E1FCE
:101B65001220AC1549E549D3940050ED7F407E1F06
:101B75001220ACE4F549E54924F8FFE4FB7D0112A8
:101B85001E357F407E1F1220AC0549E549C3948070
:091B950040E47F607EEA0220AC0E
:10170E00E4F549755B0785495C755D07755E017586
:10171E005F01E4FBAD49FF121A717F207E4E12204D
:10172E00ACC3E549648094875016755B0785495CA8
:10173E00755D07755E01E4F55FFBAD49FF121A7129
:10174E000549C3E5496480948840B8754907755BBF
:10175E000785495C755D07755E01755F01E4FBAD3C
:10176E0049FF121A717F207E4E1220ACD3E54964D8
:10177E008094804016755B0785495C755D07755EC4
:10178E0001E4F55FFBAD49FF121A711549C3E54936
:10179E006480948050B8E4F549755B0785495C75A3
:1017AE005D07755E01755F01E4FBAD49FF121A71AD
:1017BE007F207E4E1220ACC3E5496480948750167C
:1017CE00755B0785495C755D07755E01E4F55FFB2A
:1017DE00AD49FF121A710549C3E5496480948840EA
:0117EE00B842
:0117EF0022D7
:100E2A00754A077444254AF8A64A054AE54AB40FA2
:100E3A00F2E4F549E4F54A744B254AF8E6FFC3643F
:100E4A0080948040047E0180027E00C3EF64809417
:100E5A008850047F0180027F00EF5E6019744B2581
:100E6A004AF8E6FD756407F565854A66756701AB5C
:100E7A004AE4FF1212FA054AC3E54A64809488409C
:100E8A00B6E4F54A744B254AF8E6FFFD3395E0FCD3
:100E9A00ED2401FDE43CFCC3ED9408EC64809480ED
:100EAA0050047E0180027E00C3EF64809480400477
:100EBA007F0180027F00EE5F6019744B254AF8E6D5
:100ECA0004FD756407F565854A66E4F567AB4AFF74
:100EDA001212FA054AC3E54A6480948840A6E4F5EA
:100EEA004A744B254AF8E6D3648094804006744BD2
:100EFA00254AF816054AE54AB408E67F987E3A126A
:100F0A0020AC0549D3E549648094905003020E3E13
:100F1A00E4F54AC37401954AFF744B254AF8A607BB
:100F2A00054AE54AB408ECE4F549E4F54A744B2568
:100F3A004AF8E6FFC36480948040047E0180027E02
:100F4A0000C3EF6480948850047F0180027F00EF21
:100F5A005E6019744B254AF8E6FD756407F56585E8
:100F6A004A66756701AB4AE4FF1212FA054AC3E5FD
:100F7A004A6480948840B6E4F54A744B254AF8E6F8
:100F8A00FF14C36480948750047E0180027E00D3DC
:100F9A00EF6480948040047F0180027F00EE5F60EE
:100FAA0019744B254AF8E614FD756407F565854AF8
:100FBA0066E4F567AB4AFF1212FA054AC3E54A64CA
:100FCA0080948840B5E4F54A744B254AF8E6C36430
:100FDA008094875006744B254AF806054AE54AB4B8
:100FEA0008E67F987E3A1220AC0549D3E549648029
:070FFA0094905003020F3434
:0110010022CC
:10000E0075493A754A98754B08754C077446254CD8
:10001E00F8A64C054CE54CB40BF2AF4B154BEF600C
:10002E0069E4F54C744D254CF8E6C3648094885011
:10003E0003121A55744D254CF8E6FFC3648094875D
:10004E005016EF04FDC37407954CF55B8D5CF55DA2
:10005E00E4F55EF55F121A6D054CC3E54C648094B1
:10006E008440C1E4F54C744D254CF8E6D36480947D
:10007E00834006744D254CF816054CE54CB404E649
:10008E00AF4AAE491220AC020028754B03E4F54C82
:10009E00C37405954CFF744D254CF8A607054CE529
:1000AE004CB404ECAF4B154BEF6069754C01744DBD
:1000BE00254CF8E6C3648094845003121A55744D8F
:1000CE00254CF8E6FFC3648094835016EF04FDC3FD
:1000DE007407954CF55B8D5CF55DE4F55EF55F128E
:1000EE001A6D054CC3E54C6480948440C1E4F54C14
:1000FE00744D254CF8E6D3648094804006744D25EB
:10010E004CF816054CE54CB404E6AF4AAE49122045
:10011E00AC0200B2754B03754C01C37404954CFFD1
:10012E00744D254CF8A607054CE54CB404ECAF4BCA
:10013E00154BEF6068754C01744D254CF8E6C364A1
:10014E008094804003121A55744D254CF8E6FFD367
:10015E00648094804015EF14FD7407954CF55B8D0B
:10016E005CF55DE4F55EF55F121A6D054CC3E54C6A
:10017E006480948440C2754C01744D254CF8E6C3DE
:10018E00648094835006744D254CF806054CE54C5E
:10019E00B404E6AF4AAE491220AC02013C754B03E3
:1001AE00E4F54CE54C04FF744D254CF8A607054CC0
:1001BE00E54CB404EEAF4B154BEF605B754C017420
:1001CE004D254CF8E6D3648094834003121A55747F
:1001DE004D254CF8E6FFD3648094834015EF14FD53
:1001EE007407954CF55B8D5CF55DE4F55EF55F127D
:1001FE001A6D054CC3E54C6480948440C2E4F54C02
:10020E00744D254CF806054CE54CB404F3AF4AAEDC
:10021E00491220AC0201C3754B03754C03744B2578
:10022E004CF8A64C054CE54CB406F2AF4B154BEF13
:10023E006052754C01121A55744D254CF8E604FDAA
:10024E00C37407954CF55B8D5CF55DE4F55EF55F6B
:10025E00121A6D054CC3E54C6480948440D7E4F5C6
:10026E004C744D254CF8E6D3648094834006744D4F
:10027E00254CF816054CE54CB404E6AF4AAE4912CF
:10028E0020AC80A7754B03E4F54CC37405954CFF69
:10029E00744D254CF8A607054CE54CB404ECAF4B59
:1002AE00154BEF6069754C01744D254CF8E6C3642F
:1002BE008094845003121A55744D254CF8E6FFC3F2
:1002CE00648094835016EF04FDC37407954CF55B60
:1002DE008D5CF55DE4F55EF55F121A6D054CC3E5B8
:1002EE004C6480948440C1E4F54C744D254CF8E682
:1002FE00D3648094804006744D254CF816054CE569
:10030E004CB404E6AF4AAE491220AC0202AC754BB7
:10031E0003E4F54CC37403954CFF744D254CF8A6BD
:10032E0007054CE54CB404EC754D02AF4B154BEF85
:10033E00606BE4F54C744D254CF8E6C364809480F4
:10034E004003121A55744D254CF8E6FFC364809491
:10035E00804015EF04FD7407954CF55B8D5CF55DE3
:10036E00E4F55EF55F121A6D054CC3E54C6480949E
:10037E008340C2E4F54CC37405954BC36480F8E525
:10038E004C6480985006744D254CF816054CE54C7F
:10039E00B404E3AF4AAE491220AC020339754B0ADE
:1003AE00E4F54CE54C24FEFF744D254CF8A60705EC
:1003BE004CE54CB404EDAF4B154BEF6068E4F54CD7
:1003CE00744D254CF8E6C3648094804003121A5590
:1003DE00744D254CF8E6FFC3648094804015EF14ED
:1003EE00FD7407954CF55B8D5CF55DE4F55EF55F90
:1003FE00121A6D054CC3E54C6480948440C2E4F53A
:10040E004C744D254CF8E6C3648094875006744DA9
:10041E00254CF806054CE54CB404E6AF4AAE49123D
:05042E0020AC0203C434
:0104330022A6
:101CBA001217F07D107C277F03121823E4F549E4FC
:101CCA00F54AE4F9E54975F008A42480F582E4347C
:101CDA0012F583E582254AF582E43583F583E49398
:101CEA00FFA801088002C313D8FC30E02E7A01C392
:101CFA00740799FDAB02757201AF4A122018EA14F3
:101D0A00FB600DC3740799FDE4F572AF4A122018FF
:101D1A007F887E131220AC0ABA08D409B908A5052F
:101D2A004AE54AC39408409A7D987C3A7F07121F75
:0A1D3A008C0549E549C39403408578
:011D4400227C
:1014FA00754A0B754BB87D107C27E4FF121823122E
:10150A0017F01218027D107C27E4FF1213E512135C
:10151A00DF7D107C277F021213E57D107C277F0375
:10152A001213E57D107C27E4FF1213E51213DF7D09
:10153A00107C277F021213E57D107C277F0312138C
:10154A00E5E4F549C374079549F55B85495C755D22
:10155A0007755E01755F01E4FBAD49FF121A71AFB1
:10156A004BAE4A1220AC0549E549C3940840D57FE1
:10157A00307E751220ACAD4BAC4AE4FF12100F124C
:10158A0010027F307E751220ACAD4BAC4A7F02123E
:10159A00100F7F307E751220ACAD4BAC4A7F031220
:1015AA00100F7F307E751220ACAD4BAC4AE4FF12AF
:1015BA00100F1210027F307E751220ACAD4BAC4A70
:1015CA007F0212100F7F307E751220ACAD4BAC4AF1
:1015DA007F0312100F75490785495B755C07755DB6
:1015EA0007755E01E4F55FFBFDAF49121A71AF4B57
:0E15FA00AE4A1220AC1549E549D3940050DAF0
:0116080022BF
:102044007549057D107C27AF491218C47F607EEA6C
:102054001220AC7F607EEA1220AC0549E549C394A6
:032064000840E051
:012067002256
:10043400E4F54985495B755C07755D07755E017573
:100444005F01E4FBFDAF49121A71E549601514FF21
:10045400F55B755C07755D07755E01E4F55FFBFD93
:10046400121A711220A80549C3E549648094884092
:10047400C27D107C277F031213E57D107C27E4FFE7
:100484001213E51213DFE4F549C374069549FDFF21
:10049400C374069549F564F565756607756701E4E7
:1004A400FB1212FA854964756507756607E4F567FA
:1004B400FB7D07AF491212FA1220A80549C3E5498A
:1004C4006480948740C3E4F549744B2549F8760E5B
:1004D4000549E549B408F2E4F549E4FF1220D9E4FA
:1004E400F54A1212A5054AE54AC3940840F4E4F516
:1004F4004AAD49ED3395E0FCD3ED954A7480F86C30
:100504009840047F0180027F00E54924B9D36480C8
:10051400F8E54A64809840047E0180027E00EF5E24
:100524006006744B254AF806054AE54AB408C27FBA
:10053400887E131220AC0549C3E549648094D540F4
:1005440099E4F549E4FF1220D9E4F54A1212A5050D
:100554004AE54AC3940840F4E4F54AAD49ED3395BD
:10056400E0FCD3ED954A7480F86C9840047F0180D8
:10057400027F00E54924B9D36480F8E54A64809891
:1005840040047E0180027E00EF5E6006744B254AC3
:10059400F816054AE54AB408C27F887E131220ACD7
:1005A4000549C3E549648094D54099E4F549E4FFDD
:1005B4001220D9E54B75F01C8485F055E555901251
:1005C4004C93FFC4135407F553EF13135407F55416
:1005D400E54B24F2FFE434FFFE7C007D1C1219CAB3
:1005E4008D55E55593FFC4135407F556EF13135473
:1005F40007F55785565BF55C755D07E4F55E755F39
:1006040001FBAD54AF53121A7185565B85575C7567
:100614005D06E4F55E755F017B01AD54AF53121ABC
:1006240071054B7F887E131220AC0549C3E54964EC
:1006340080949D50030205B2E4F549E4FF1220D9E9
:10064400E54B75F01C8485F055E55590124C93FFED
:10065400C4135407F553EF13135407F554E54B240F
:10066400F2FFE434FFFE7C007D1C1219CA8D55E5AF
:100674005593FFC4135407F556EF13135407F55756
:1006840085565BF55C755D07755E01755F01E4FB7E
:10069400AD54AF53121A71154B7F887E131220ACE0
:1006A4000549C3E549648094904090E4F549E4F534
:1006B40064F565854966F567FBAD49AF491212FAE1
:1006C4007F887E131220AC0549C3E5496480948871
:1006D40040DC754901756407756507854966E4F56D
:1006E400677B07AD49AF491212FA7F887E13122047
:1006F400AC0549C3E5496480948740D9754901E450
:10070400FF1220D9C374079549F55BF55CC37407E0
:100714009549F55DE4F55E755F017B077D077F070D
:10072400120C2E1220A80549C3E549648094884020
:10073400CE754901E4FF1220D9C374079549F55BCE
:10074400F55CC374079549F55DE4F55E755F01FBDF
:10075400FD120C2E1220A80549C3E5496480948734
:1007640040D2754901E4FF1220D985495B85495C73
:1007740085495DE4F55E755F01FBFD120C2E1220C8
:10078400A80549C3E5496480948840D9754901E4C2
:10079400FF1220D985495BC374079549F55CF55D63
:1007A400E4F55E755F01FBFD7F07120C2E1220A895
:1007B4000549C3E5496480948740D4754901C374ED
:1007C400079549F55B85495C85495D755E01755FF3
:1007D40001E4FBFD7F07120C2E1220A80549C3E596
:1007E400496480948840D7754901E4FF1220D9C335
:1007F40074079549F55B85495C85495D755E0175AE
:100804005F017B077D07120C2E1220A80549C3E562
:07081400496480948740D382
:01081B0022BA
:10081C00754901E4FF1220D9755B01755C07755DA4
:10082C0007755E01755F017B067D06120C2EC37485
:10083C00069549FBE54904F55B755C07C3740795A0
:10084C0049F55D755E01755F017D06AF49120C2E91
:10085C00E54904F55B755C07755D07755E01755FB1
:10086C00017B067D06AF49120C2EC374069549FB1D
:10087C00755B01755C07C374079549F55D755E0181
:10088C00755F017D06E4FF120C2EC374069549FDBD
:10089C00755B01C374079549F55C755D07755E0161
:1008AC00755F017B06E4FF120C2EC374069549FBA1
:1008BC00FDE54904F55BC374079549F55CF55D7579
:1008CC005E01755F01AF49120C2EC374069549FD8C
:1008DC00E54904F55BC374079549F55C755D0775CF
:1008EC005E01755F017B06AF49120C2EC374069531
:1008FC0049FBFD755B01C374079549F55CF55D75A6
:10090C005E01755F01E4FF120C2E7F307E751220A4
:10091C00AC0549E549C39407500302081FE4F549A7
:10092C00E54975F006A4FF744B2549F8A60705495F
:10093C00E549B404EBE4F549E4FF1220D9E4F54AA7
:10094C00120BF7E54F04F55BE55004F55C755D079C
:10095C00755E01755F017B06120C2A054AE54AC3D8
:10096C00940440DCE4F54A744B254AF806054AE544
:10097C004AB404F31220A80549E549C3942340B8AE
:10098C00E4F549E4FF1220D9E4F54A120BF7E54FE0
:10099C0004F55BE55004F55C755D07755E01755FEC
:1009AC00017B06120C2A054AE54AC3940440DCE498
:1009BC00F54A744B254AF816054AE54AB404F31275
:1009CC0020A80549E549C3942340B8E4F549E4FF60
:1009DC001220D9E4F54A744B254AF8E675F01884D0
:1009EC0085F051E55190126893FFC4540FF54FEF09
:1009FC00540FF550E54F04F55B755C01E55004F5BB
:100A0C005D755E01755F01AB50E4FDAF4F120C2EAE
:100A1C00E54F04F55B755C07E55004F55D755E010B
:100A2C00755F01AB507D06AF4F120C2E054AE54A9F
:100A3C00C3940440A1E4F54A744B254AF806054AD0
:100A4C00E54AB404F31220A80549E549C3942350A0
:100A5C00030209DAE4F549E4FF1220D9E4F54A74FB
:100A6C004B254AF8E675F0188485F051E551901243
:100A7C006893FFC4540FF54FEF540FF550E54F0436
:100A8C00F55B755C01E55004F55D755E01755F0104
:100A9C00AB50E4FDAF4F120C2EE54F04F55B755CCB
:100AAC0007E55004F55D755E01755F01AB507D0681
:100ABC00AF4F120C2E054AE54AC3940440A1E4F54D
:100ACC004A744B254AF816054AE54AB404F3122039
:100ADC00A80549E549C394245003020A63754906E5
:100AEC00E4FF1220D9755B01755C07755D07755EB7
:100AFC0001755F017B067D06120C2EC374069549A9
:100B0C00FBE54904F55B755C07C374079549F55D16
:100B1C00755E01755F017D06AF49120C2EE5490427
:100B2C00F55B755C07755D07755E01755F017B068E
:100B3C007D06AF49120C2EC374069549FB755B01FB
:100B4C00755C07C374079549F55D755E01755F01AA
:100B5C007D06E4FF120C2EC374069549FD755B01EE
:100B6C00C374079549F55C755D07755E01755F018A
:100B7C007B06E4FF120C2EC374069549FBFDE54978
:100B8C0004F55BC374079549F55CF55D755E0175FD
:100B9C005F01AF49120C2EC374069549FDE549045B
:100BAC00F55BC374079549F55C755D07755E01755A
:100BBC005F017B06AF49120C2EC374069549FBFDF1
:100BCC00755B01C374079549F55CF55D755E017540
:100BDC005F01E4FF120C2E7F307E751220AC15499C
:0A0BEC00E549D394004003020AEC2F
:010BF60022DC
:10160900E4F54AE4F549E54990129893FFC4540F6B
:101619006019EF540FF54B04FBE4F5647565078B0E
:1016290066756701FDFF1212FA8008E54990129864
:1016390093F54BE4F564756507854B66756701ABF2
:101649004BFDFF1212FA1220A50549E549C3940D75
:1016590040B4054AE54AC3940540A8754A01E54ADC
:10166900D394034005754B048003854A4BE4F5493F
:10167900E549C394185038E54990126893FFC4545A
:101689000FF54CEF540FF54DE4F55BE54C04F55CB3
:10169900E54D04F55D755E01755F01AB4DAD4CE43B
:1016A900FF121A711220A5E54A2549F54980C1059D
:1016B9004AE54AC3940840A6754A01E54AD394030A
:1016C9004005754B048003854A4BE4F549E549C358
:1016D90094185027E54990126893FFC4540FF54CAC
:1016E900EF540FF54D757201FBAD4CE4FF12201854
:1016F9001220A5E54A2549F54980D2054AE54AC39C
:04170900940840B749
:01170D0022B9
:101F4100122108E4FF1220D9121B0512170E120EDE
:101F51002A120E2A12000E12000E121CBA1214FAC4
:101F610012204412043412081CE4FF1220D9121664
:101F71000912043412000E1214FA12000E121CBAC5
:0B1F810012204412043412081C80B827
:03000B00021D458E
:101D4500C0E0C0F0C0D075D000C000C003C004C062
:051D550005C006C007F7
:101D5A00759000E4FB7401A803088002C333D8FC21
:101D6A00F5A07F037E001220ACE50875F008A424D4
:101D7A00092BF8E6F5807F037E001220AC0BBB0826
:101D8A00D4AF087401A807088002C333D8FCF590C1
:101D9A00E508C39407500405088003750800758C8C
:041DAA00C0758A0076
:101DAE00D007D006D005D004D003D000D0D0D0F0CC
:031DBE00D0E03240
:03000000021C2EB1
:0C1C2E00787FE4F6D8FD758179021C7502
:10198D00BB010689828A83E0225002E722BBFE0258
:09199D00E32289828A83E493228B
:1019A600BB010689828A83F0225002F722BBFE0120
:0219B600F3221A
:1019B800EF8DF0A4A8F0CF8CF0A428CE8DF0A42E43
:0219C800FE22FD
:1019CA00BC000BBE0029EF8DF084FFADF022E4CC01
:1019DA00F875F008EF2FFFEE33FEEC33FCEE9DECCA
:1019EA00984005FCEE9DFE0FD5F0E9E4CEFD22ED10
:1019FA00F8F5F0EE8420D21CFEADF075F008EF2F5A
:101A0A00FFED33FD4007985006D5F0F222C398FD4A
:051A1A000FD5F0EA22E7
:101A1F00C2D5EC30E709B2D5E4C39DFDE49CFCEEE2
:101A2F0030E715B2D5E4C39FFFE49EFE1219CAC377
:101A3F00E49DFDE49CFC80031219CA30D507C3E472
:061A4F009FFFE49EFE2251
:101C3A00021F41E493A3F8E493A34003F68001F260
:101C4A0008DFF48029E493A3F85407240CC8C333AB
:101C5A00C4540F4420C8834004F456800146F6DF7A
:101C6A00E4800B0102040810204080900003E47E07
:101C7A00019360BCA3FF543F30E509541FFEE4936F
:101C8A00A360010ECF54C025E060A840B8E493A336
:101C9A00FAE493A3F8E493A3C8C582C8CAC583CA61
:101CAA00F0A3C8C582C8CAC583CADFE9DEE780BE19
:0100060000F9
:00000001FF
